:020000040800F2
:10000000704401208102000831310008D925000820
:100010001130000839100008BB4200080000000041
:10002000000000000000000000000000C101000806
:10003000D1230008000000001D020008453D000813
:100040009B0200089B0200089B0200089B0200081C
:100050009B0200089B0200089B0200089B0200080C
:100060009B0200089B0200089B0200089B020008FC
:100070009B0200089B0200089B0200089B020008EC
:100080009B0200089B0200089B0200089B020008DC
:100090003D1000089B0200089B0200089B0200081C
:1000A0009B0200089B0200089B0200089B020008BC
:1000B0009B0200089B0200089B0200089B020008AC
:1000C0009B0200089B0200089B0200089B0200089C
:1000D0009B020008A13F00080D4000087540000881
:1000E0009B0200089B0200089B0200089B0200087C
:1000F0009B0200089B0200089B0200089B0200086C
:100100009B0200089B0200089B0200089B0200085B
:100110009B0200089B020008CD3D00089B020008DE
:100120009B0200089B0200089B0200089B0200083B
:100130009B0200089B0200089B0200089B0200082B
:10014000991000089B0200089B0200089B0200080F
:100150009B0200089B0200089B020008E94000087F
:100160009B0200089B0200089B0200089B020008FB
:100170009B0200089B0200089B0200089B020008EB
:100180009B0200089B020008393F00089B02000800
:100190009B0200089B0200089B0200089B020008CB
:1001A00000000000000000009B020008DFF80CD0F7
:1001B00000F0EEFB00480047C15E000870440120DB
:1001C0002C4B19680868B0E8F04F80F30988BFF33A
:1001D0006F8F4FF0000080F311887047000000001F
:1001E00008480068006880F308884FF0000080F33A
:1001F000148862B661B6BFF34F8FBFF36F8F00DF15
:1002000000BF00BF08ED00E0DFF80C00016841F41A
:1002100070010160704700BF88ED00E0EFF30980D6
:10022000BFF36F8F134B1A681EF0100F08BF20ED3D
:10023000108A20E9F04F106009B44FF0500080F3AD
:100240001188BFF34F8FBFF36F8F07F029F94FF07D
:10025000000080F3118809BC19680868B0E8F04F05
:100260001EF0100F08BFB0EC108A80F30988BFF3AE
:100270006F8F704774030020EFF305807047000014
:100280000648804706480047FEE7FEE7FEE7FEE730
:10029000FEE7FEE7FEE7FEE7FEE7FEE7713D00084A
:1002A000AD01000840EA01039B0703D009E008C93B
:1002B000121F08C0042AFAD203E011F8013B00F82B
:1002C000013B521EF9D27047D2B201E000F8012B77
:1002D000491EFBD270470022F6E710B513460A46C6
:1002E00004461946FFF7F0FF204610BD421C10F8E7
:1002F000011B0029FBD1801A7047034611F8012B1E
:1003000000F8012B002AF9D1184670472DE9FE4F5D
:10031000804681EA0300C00F0C46009021F00041A6
:1003200023F00045B8EB0200A94105D24046214622
:1003300090461C460B46024623F00040104347D02F
:10034000270DC7F30A00C3F30A510290401A019027
:1003500040286BDAC3F3130040F4801B00989246E8
:1003600020B10023D2EB030A63EB0B0B0198594633
:10037000C0F14002504600F057F906460D4650467F
:100380005946019A00F06FF910EB08006141002412
:1003900087EA115284EAE7731A4340D0009A62B3A5
:1003A000019A012A4FEA075215DC001B61EB02019A
:1003B0004FF0004202EA0752CDE90042001C41F52D
:1003C000801132462B4600F0A6F903B0BDE8F08F4D
:1003D00040462146F9E7001B61EB0201001C41F594
:1003E000801300185B412018A2F5001747EB0301AA
:1003F00040EAD570B6196D4111E06D084FEA360636
:1004000045EAC0754FEA0752001B61EB0201001C70
:1004100041F5801149084FEA300000195141324638
:100420002B4603B0BDE8F04F00F066B900980122FA
:1004300040000023D0EB020263EBE07300982146FA
:100440004FEAE074B8EB000061EB0401E9E783F0E8
:1004500000435BE781F0004158E72DE9FE4F81EA58
:10046000030404F0004421F0004100944FF0000B1D
:1004700023F0004350EA01045ED052EA03045BD04B
:10048000C3F30A54C1F30A552C44A4F2F334019483
:10049000A0FB0254C1F3130141F48011C3F3130311
:1004A00043F4801301FB024400FB034E840A970AC5
:1004B00044EA815447EA8357A4FB076802958D0AF2
:1004C00005FB07854FEA932C04FB0C542705029D7E
:1004D0004FEA065847EA1637B5EB08056EEB070CEE
:1004E000870E920E47EA811742EA8312A7FB0201A8
:1004F000B6EB0B0164EB00042B0D43EA0C335E18E2
:1005000044EB1C50DA465146E7FB0201C5F31304E5
:100510004FEA0B3343EA14534FEA0432019C43EA97
:100520000603A4F10C040294009CCDE900B400F091
:10053000F2F803B0BDE8F08F00200146F9E70EB5F0
:10054000C10F80EAE0700844CA07002140F233433B
:100550008DE80E000A460B4600F0DDF803B000BD42
:1005600070B5C1F30A5201F000450024C1F3130134
:1005700040F2FF3341F480119A4201DA002070BD4D
:1005800040F233439A42A2F2334203DC524200F07B
:100590005AF800E090402C43F1D0404270BD00F08A
:1005A000004230F000400AD0C10D01F56071C0F387
:1005B000160042EA0151C20840071143704700206B
:1005C0000146704701F0004330B421F0004150EA89
:1005D000010206D00A0DA2F56072C1F31301002AD0
:1005E00002DC30BC00207047440F44EAC104C10063
:1005F000E01830BC00EBC25000F047B830B50B46F5
:10060000014600202022012409E021FA02F59D4242
:1006100005D303FA02F5491B04FA02F52844151E16
:10062000A2F10102F1DC30BD202A04DB203A00FAFD
:1006300002F1002070479140C2F1200320FA03F339
:10064000194390407047202A04DB203A21FA02F037
:100650000021704721FA02F3D040C2F120029140FC
:10066000084319467047202A06DBCB17203A41FA87
:1006700002F043EAE07306E041FA02F3D040C2F12F
:10068000200291400843194670470029A8BF7047CF
:10069000401C490008BF20F00100704710B4B0FAB8
:1006A00080FC00FA0CF050EA010404BF10BC704753
:1006B00049B1CCF1200421FA04F411FA0CF118BF6D
:1006C000012121430843A3EB0C01CB1D4FEA00613C
:1006D0004FEA102042BF002010BC704700EBC3500F
:1006E00010440029A4BF10BC7047401C490008BF3B
:1006F00020F0010010BC704710B5141E73F1000407
:1007000008DA401C41F1000192185B411A4301D103
:1007100020F0010010BD2DE9F04D92469B4611B12D
:10072000B1FA81F202E0B0FA80F220329046FFF78F
:100730007BFF04460F4640EA0A0041EA0B0153469C
:100740005A46084313D0114653EA010019D0C8F1A4
:1007500040025046FFF777FF05460E465046594681
:100760004246FFF761FF084305D0012004E0204620
:100770003946BDE8F08D0020054346EAE0762C437B
:1007800037430A986305E40AA0EB08000022FD0A3B
:1007900044EA47540A3002D500200146E9E7010542
:1007A00010196941DDE9084500196941BDE8F04DBE
:1007B000A2E72DE9F04D81EA030404F0004B21F09B
:1007C000004514464FF0000A23F0004150EA0502AC
:1007D00020D054EA01021DD0C5F30A570246C5F3E2
:1007E0001303C1F31300C1F30A5640F4801543F418
:1007F0008013A7EB0608101BD64608F2FD3873EBF2
:10080000050002D308F1010801E092185B41B8F13C
:10081000000F03DA00200146BDE8F08D00204FF400
:100820008011064684460EE0171B73EB050705D3BF
:10083000121B63EB050306434CEA010C49084FEA1F
:10084000300092185B4150EA0107EDD152EA0300F3
:1008500012D082EA040083EA0501084305D0101B88
:10086000AB4106D20122002306E000224FF00043F4
:1008700002E06FF0010253101AEB06004CEB085136
:1008800010EB0A0041EB0B01BDE8F04DFFF734BF60
:1008900070B521F0004303430CD0C1F30A55002486
:1008A000D5EB040564EB0403D617AD1AB34102DBA4
:1008B0000020014670BD201841EB025170BD2DE9AA
:1008C000F04D00231A461B1A8A4103DB0020014623
:1008D000BDE8F08DC1F30A52C1F3130141F4801554
:1008E0004FF0000BD10702D100186D41521E0027B6
:1008F000044640F2FF11384601EB620A3E4680464C
:10090000024600204FF48011FFF79DFEC21971418D
:10091000BB1846EB0100B4EB030C75EB000C04D3E1
:10092000E41A65EB000517460E46241908F101008C
:100930006D4180463428E3DDF91946EB0600091BBA
:10094000A84103D24FF0FF32134601E000221346C4
:100950001BEB070046EB0A51BDE8F04DFFF7CCBE9C
:1009600030B5041E71F1000404DB4FF00044404236
:1009700064EB0101141E73F1000405DB1C464FF00B
:100980000043524263EB0403994208BF904230BDDA
:10099000064C074D06E0E06840F0010394E80700CC
:1009A00098471034AC42F6D3FFF704FC20820008CD
:1009B000408200080EB540F2334102910021CDE99A
:1009C00000110A460B46FFF7A6FE03B000BD70B546
:1009D0008D1810F8014B14F0030201D110F8012B0F
:1009E000231106D110F8013B03E010F8016B01F868
:1009F000016B521EF9D1ABB110F8012B04F00C04BD
:100A00008A1A0C2C03D0A2EB84129B1C08E010F86D
:100A1000014BA2EB0422F8E712F8014B01F8014B5D
:100A20005B1EF9D5A942D4D3002070BDF0B589B0C2
:100A30000121082002F0C0FE00248DF8224002258A
:100A40008DF823402B4F8DF821508DF8205007A9A9
:100A50003846079501F00BFD012607A93846079691
:100A600001F005FD09220121384601F051FD09225E
:100A70000021384601F04CFD0121480602F0A8FE95
:100A80008DF807608DF806408DF8045004208DF82D
:100A900008408DF802408DF805008DF809408DF86A
:100AA00003400520144D8DF80B40ADF800008DF883
:100AB0000A406946284600F01BFC8DF816408DF868
:100AC00017408DF81860ADF80C40ADF81040ADF847
:100AD00014408DF81960ADF80E40ADF8124003A82F
:100AE00000F044FB01220221284600F0F9FB09B086
:100AF000F0BD0000000C024000640040F8B54FF467
:100B0000407002F049FB14208DF8000001248DF89C
:100B1000034006208DF8010000258DF8025068463C
:100B200002F008FB40208DF800008DF803400920FA
:100B30008DF801008DF80250684602F0FBFA25207E
:100B40008DF800008DF8034005268DF801608DF8C2
:100B50000250684602F0EEFA26208DF800008DF86B
:100B600003408DF801608DF80250684602F0E2FA09
:100B700027208DF800008DF8034008208DF8010033
:100B80008DF80250684602F0D5FA34208DF8000046
:100B90008DF8034007208DF801008DF8025068465B
:100BA00002F0C8FA35208DF800008DF803400A26BF
:100BB0008DF801608DF80250684602F0BBFA4720BC
:100BC0008DF800008DF803400B208DF801008DF8A2
:100BD0000250684602F0AEFA52208DF800008DF8FF
:100BE00003408DF801608DF80250684602F0A2FAC9
:100BF00036208DF800008DF803408DF801608DF8E7
:100C00000250684602F096FAF8BD00003EB50C4668
:100C100005460121102002F0DBFD01940020ADF813
:100C20000050094CADF80800ADF8020069462046B6
:100C300003F006F901221146204603F0F8F80121DD
:100C4000204603F0DEF83EBD0010004070B50546BA
:100C5000012186B0880702F0BBFD0121102002F0BF
:100C6000ABFD00248DF8064001208DF8070002201E
:100C70008DF805008DF80400C0011C4E00906946F7
:100C8000304601F0F4FB802000906946304601F0C8
:100C9000EEFB08221146304601F03AFC08220721FB
:100CA000304601F035FC0C20ADF81200ADF80E40D6
:100CB000ADF81440ADF81040ADF80C400C4C029566
:100CC00002A9204603F094FA01228021204603F075
:100CD00049FA012240F22441204603F071FA012131
:100CE000204603F035FA06B070BD00000010024047
:100CF00000780040F0B50646012187B0C80702F031
:100D000067FD0121102002F057FD00248DF80640F8
:100D1000012502218DF807508DF805101C4F8DF824
:100D2000041000916946384601F0A1FB6946384637
:100D3000009501F09CFB08220121384601F0E8FBF8
:100D400008220021384601F0E3FB0C20ADF8120028
:100D5000ADF80E40ADF81440ADF81040ADF80C40C1
:100D60000C4C029602A9204603F042FA012280218F
:100D7000204603F0F7F9012240F22441204603F017
:100D80001FFA0121204603F0E3F907B0F0BD00008F
:100D900000100240007C004070B5054686B001217D
:100DA000102002F021FD0121022002F005FD0024A7
:100DB0008DF8064001208DF8070002208DF805000F
:100DC0008DF8040040201C4E00906946304601F02A
:100DD0004EFB802000906946304601F048FB072218
:100DE0000621304601F094FB07221146304601F0FF
:100DF0008FFB0C20ADF81200ADF80E40ADF814409A
:100E0000ADF81040ADF80C400C4C029502A92046FC
:100E100003F0EEF901228021204603F0A3F901221C
:100E200040F22441204603F0CBF90121204603F093
:100E30008FF906B070BD00000004024000100140B0
:100E400070B50546012186B0480402F0C1FC0121BD
:100E5000082002F0B1FC00248DF8064001208DF836
:100E6000070002208DF805008DF8040020201C4E9C
:100E700000906946304601F0FAFA40200090694639
:100E8000304601F0F4FA07220521304601F040FB1C
:100E900007220621304601F03BFB0C20ADF8120082
:100EA000ADF80E40ADF81440ADF81040ADF80C4070
:100EB0000C4C029502A9204603F09AF901228021E8
:100EC000204603F04FF9012240F22441204603F06E
:100ED00077F90121204603F03BF906B070BD000010
:100EE000000C02400044004070B50546012186B068
:100EF000880402F06DFC0121082002F05DFC002452
:100F00008DF8064001208DF8070002208DF80500BD
:100F10008DF80400C0011C4E00906946304601F077
:100F2000A6FA701500906946304601F0A0FA072233
:100F30000821304601F0ECFA07220921304601F081
:100F4000E7FA0C20ADF81200ADF80E40ADF81440F1
:100F5000ADF81040ADF80C400C4C029502A92046AB
:100F600003F046F901228021204603F0FBF801221C
:100F700040F22441204603F023F90121204603F0EA
:100F8000E7F806B070BD0000000C024000480040C9
:100F900070B5054686B00121202002F025FC012114
:100FA000042002F009FC00248DF8064001208DF891
:100FB000070002208DF805008DF8040040201C4E2B
:100FC00000906946304601F052FA80200090694650
:100FD000304601F04CFA08220621304601F098FA1A
:100FE00008220721304601F093FA0C20ADF81200D8
:100FF000ADF80E40ADF81440ADF81040ADF80C401F
:101000000C4C029502A9204603F0F2F8012280213F
:10101000204603F0A7F8012240F22441204603F0C5
:10102000CFF80121204603F093F806B070BD000010
:101030000008024000140140FEE7000010B586B031
:101040000020124C05900221204600F0F5F80028FF
:1010500019D06A460021204600F0BEF90C48002352
:1010600005AA6946006806F0EBFC059838B1094905
:101070004FF080500860BFF34F8FBFF36F8F022196
:10108000204600F037F806B010BD000000640040B4
:101090005400002004ED00E010B586B00020124C92
:1010A00005900221204600F0C7F8002819D06A46B2
:1010B0000021204600F090F90C48002305AA69465B
:1010C000006806F0BDFC059838B109494FF0805022
:1010D0000860BFF34F8FBFF36F8F0221204600F0EF
:1010E00009F806B010BD000000680040580000205C
:1010F00004ED00E030B5082310240422B1F5007F90
:101100001DD010DC202929D007DC012921D0042999
:1011100022D0082900D1C46030BD402920D0B1F5CB
:10112000807FF9D10BE00025B1F5004F06D008DC37
:10113000B1F5806F03D0B1F5006FEDD185614260EC
:1011400030BDB1F5803F0DD0B1F5003FF8D144601E
:1011500030BD0549816030BDC36030BD036130BD25
:10116000046130BD436030BD01010100F0B5827AF9
:10117000012191402E4A136843F0010313602C4B68
:101180001C331C688C431C60294D067B294C0C3594
:10119000A6B92E688E432E604688C78846EA074661
:1011A000877A04EBC707C7F840660688878846EA4F
:1011B0000746877A04EBC707C7F84466067B012E0B
:1011C00012D12E680E432E60867A056804EBC6069F
:1011D0004FEA3545C6F84056867A456804EBC604A2
:1011E0004FEA3545C4F84456114CC57A241D002DEC
:1011F000256806D00D4325600D4C0589143415B1C2
:1012000004E08D43F7E725688D4325600589012DAE
:1012100002D125680D432560407B012802D1186862
:1012200008431860106820F001001060F0BD000055
:1012300000660040006000400246002053690B42F7
:101240004AD0B1F5807F3BD013DC08292ED007DCD3
:10125000012926D0022927D004293DD1D0682BE0CE
:10126000102925D0202926D0402935D110691021F8
:1012700030E0B1F5004F2BD00BDCB1F5007F22D070
:10128000B1F5806F22D0B1F5006F25D19069702142
:1012900020E0B1F5803F11D0B1F5003F1CD150687E
:1012A000E5E790680D4915E0D06802E0D068DEE718
:1012B000106903210EE0106908210BE05068FBE77C
:1012C0009069012106E09069022103E0906900E045
:1012D0005068042100F0D6BB7047000001010100F6
:1012E000002A426901D00A4300E08A434261704704
:1012F00010B50368002223F002030360036843F083
:10130000010303604FF6FF7300E0521C4468E407DA
:1013100001D19A42F9D14268D2073ED08A79012A96
:1013200002683CD022F080020260CA79012A026879
:1013300038D022F0400202600A7A012A026834D0D2
:1013400022F0200202604A7A012A026830D022F09C
:10135000100202608A7A012A02682CD022F0080268
:101360000260CA7A012A026828D022F004020260D0
:101370008A78CC78920742EA04620C7942EA044205
:101380004C79098842EA0452491E0A43C261016845
:1013900021F001010160002114E0002010BD42F0A5
:1013A0008002C1E742F04002C5E742F02002C9E7EF
:1013B00042F01002CDE742F00802D1E742F0040209
:1013C000D5E7491C4268D20701D09942F9D140685B
:1013D000C007E2D1012010BD10B500EB0113D3F816
:1013E000B04114F004041472D3F8B04134D0E408CE
:1013F000C2F80440D3F8B04104F002045472D3F8A8
:10140000B44104F00F049472D3F8B441240AD474A4
:10141000D3F8B841D472D3F8B841240A1473D3F87E
:10142000B841240C5473D3F8B841240E9473D3F804
:10143000BC41D473D3F8BC41240A1474D3F8BC4122
:10144000240C5474D3F8BC311B0E937439B1016968
:1014500041F02001016110BD640D1460CAE7C1684C
:1014600041F02001C16010BD30B5024600209368F4
:101470005B0108D49068000101D5012003E0906869
:10148000C00037D5022002EB0012D2F8803103F001
:101490000103C2F880310B7A73B3D2F880414D68F2
:1014A0001C434B7A43EAC5031C43C2F880418B7A44
:1014B00003F00F038B72D2F8843123F00F03C2F8CC
:1014C0008431D2F884318C7A2343C2F88431CB7AC8
:1014D000CC6843EA0423C2F88831CB7B096943EA2C
:1014E0000121C2F88C11D2F8801141F00101C2F83B
:1014F000801130BD042030BDD2F880314C7A2343B6
:101500000C8843EA4453C2F88031D0E7F0B5264B4B
:1015100000226FF02F04815C242929D181180D79D4
:101520002C2D25D10D7A2C2D22D14D78CE78302D31
:101530008D78A5F1300505EB850504EB45053544AF
:1015400000D16D425D814D79CE79303D05EBC50707
:1015500007EB051506EB85058E794FF6F05706EB80
:10156000860607EB460635449D81497A30399973E2
:10157000521CD2B20F2ACED30C489A7B0178022A91
:1015800009D0042A0AD0052A0BD0062A02D141F03C
:1015900040010170F0BD41F00401FAE741F0100193
:1015A000F7E741F02001F4E7141100206E0300205A
:1015B0001CB500221821142006F024F9164C142121
:1015C00000222060084606F01DF914216060002208
:1015D000084606F017F9A06004F10C000324CDE9D9
:1015E0000040002380220DA1114806F05DFB0A484F
:1015F00000231030CDE9004080220EA1124806F0F1
:1016000053FB054800231430CDE9004080220FA190
:10161000124806F049FB1CBD50000020765461734F
:101620006B43616E31526563656976650000000049
:101630003D6B0008765461736B43616E3252656393
:101640006569766500000000E16B000876546173FF
:101650006B43616E53656E6400000000096C000806
:101660002DE9F043914E2DED028B83B071889FEDF3
:10167000908A91488F4D914CC27F05F58077A229C1
:1016800049D2032A7DD106F11C00F0EE480A00EB96
:101690008100C4ED0D0A90ED000AB5EEC00AF1EE2E
:1016A00010FA02DDB0EE401A01E0B1EE401A9FEDF3
:1016B000842ADFED841A491CC1EB011241EE421A63
:1016C0005200814BBDEEE11A11EE100A01EE102A14
:1016D00000B26880B8EE411AD4ED0B1A31EE211A2F
:1016E00011EE102A9A420CDA404201EE100AB8EECE
:1016F000C11A21EE000ABDEEC00A10EE100A2880C1
:10170000718094ED070A384601F084FEBDEEC00AF0
:1017100010EE100A97E0032A33D13178032930D232
:10172000DFF8A881DFF8A891012902D002297AD137
:1017300043E04FF47A7000F02DFAF0EE480AC4ED61
:101740000D0A94ED070A384601F064FEBDEEC00AAA
:1017500010EE100AA8805748D4ED100A94ED0A0A3A
:10176000083001F057FEBDEEC00A10EE100A2880C6
:101770005048D4ED110A94ED0B0A843001F04AFE72
:1017800000E051E0BDEEC00A10EE100A688094ED52
:101790000B0ADFED500A30EEC00A10EE101A414578
:1017A00052D294ED0A0ADFED4C0A30EE600A10EED8
:1017B000100A484548DA022034E040F2DC5000F0DC
:1017C0003BFA94ED0D0A454910EE100A884202DDFD
:1017D000DFED430A03E0DFED430A70EE200A3846EE
:1017E000C4ED0D0A94ED070A01F014FEBDEEC00A27
:1017F00010EE100AA88002F071F994ED0B0ADFEDEB
:101800003A0A30EEC00A10EE100A40451CD294EDA0
:101810000A0ADFED360A30EEC00A10EE100A48451B
:1018200012DA032030700FE0018B4FF6F67251434D
:101830002980C18A428B11444FF6F6725143698068
:10184000808A00EB8000A880B5F9040000EE100A41
:10185000B5F90200B8EEC01A00EE100AB5F90000A2
:10186000F8EEC00A00EE100A6846B8EEC00A00F0B2
:1018700081F840F6B834BDF900302246012100203D
:1018800002F058F8BDF9023022460221002002F091
:1018900051F8BDF9043022460321002002F04AF835
:1018A00003B0BDEC028BBDE8F08300006C000020AB
:1018B000000000002004002020080020C8100020A4
:1018C0000000FA4300007AC40000A0400000C8C233
:1018D0000000C8420000FAC5004035440000B44290
:1018E0000000B4426666663F00D004C600401C4556
:1018F00070B54FF4FA742DED028B4FF448759FEDDF
:10190000198AB0EE000A2346B0EE481AF0EE480AF3
:101910002A460321144801F00FFF1348B0EE481A7D
:10192000F0EE480AB0EE000A23462A4603217C3036
:1019300001F002FF0C48B0EE481AF0EE480A9FEDA5
:101940000B0A23462A460321F83001F0F5FE084829
:10195000054980ED0D8A0020083948800880BDECDB
:10196000028B70BD0000000028040020000048C267
:10197000C810002010B504462DED0C8BB0EE418A46
:10198000F0EE408AB0EE609A38EE680ABDEEC00A0A
:1019900010EE100A208018EE100AFEF700FE9FEDF0
:1019A00037CB41EC1B0BB0EE4C0AF0EE6C0A02F0A8
:1019B0006FFDB0EE40AAF0EE60AA19EE100AFEF735
:1019C000EEFD53EC1A2BFEF748FD41EC1A0BB0EE7E
:1019D0004C0AF0EE6C0A03F0E7FBB0EE40DAF0EEF2
:1019E00060DA18EE900AFEF7DAFD53EC1D2BFEF7D5
:1019F00034FD53EC1A2BFEF72AFD53EC1B2BFEF79C
:101A000085FCFEF7ADFD608018EE100AFEF7C7FDFD
:101A100041EC1A0BB0EE4C0AF0EE6C0A02F038FD05
:101A2000B0EE40BAF0EE60BA19EE100AFEF7B7FD5C
:101A300053EC1B2BFEF711FD41EC190BB0EE4C0AD9
:101A4000F0EE6C0A03F0B0FBB0EE40BAF0EE60BA14
:101A500018EE900AFEF7A3FD53EC1B2BFEF7FDFCDE
:101A600053EC192BFEF752FC53EC1A2BFEF74EFCED
:101A7000FEF776FDA080BDEC0C8B10BD0000004091
:101A800052C1E03F024600200A4200D001207047C8
:101A90001CB510480224CDE900400023E2010EA14C
:101AA000124806F001F90B480023001DCDE9004063
:101AB00080220FA1124806F0F7F8064800230830EC
:101AC000CDE900404FF47A720EA1124806F0ECF80E
:101AD0001CBD000000000020765461736B437472DB
:101AE0006C4368617373697300000000496C0008FF
:101AF000765461736B4374726C47696D62616C00FC
:101B0000636C0008765461736B4374726C4A6F693E
:101B10006E740000756C000810B551EC120B2DEDC1
:101B20000A8BB0EE40AAF0EE60AAB0EE44BAF0EE36
:101B300064BAB0EE439A9FED150BF0EE639AB0EEE7
:101B400041CAF0EE61CA53EC102BFEF786FC41EC63
:101B5000180B53EC1B2B51EC1C0BFEF77EFC53ECCB
:101B6000182BFEF7D3FB41EC100B03F01DFB53ECDD
:101B70001A2B51EC100BFEF770FC53EC192BFEF7EF
:101B8000C5FBBDEC0A8B41EC100B10BD1E26445466
:101B9000FB21094070B5244C244D06462DED048BE5
:101BA00094ED0A0AD5ED000A30EEC00A10EE100AD4
:101BB000FEF7F5FC9FED1E9B41EC100BB0EE491AB1
:101BC000F0EE691A02F0C8FCB0EE408AF0EE608ACE
:101BD0003046FEF7B4FC41EC100BB0EE491AF0EEC3
:101BE000691A02F0B9FC53EC182B51EC100BFEF7FC
:101BF0002EFC41EC100B03F03BFBB0EE408AF0EE04
:101C0000608AE06AFEF7CBFC53EC182BFEF71FFC52
:101C1000FEF7D8FC686095ED000A84ED100A606458
:101C2000BDEC048B70BD0000C81000205C030020D8
:101C3000000000000000004070B5264C264D06460E
:101C40002DED048B94ED0B0AD5ED030A30EEC00A9E
:101C500010EE100AFEF7A3FC9FED209B41EC100B49
:101C6000B0EE491AF0EE691A02F076FCB0EE402AA6
:101C7000F0EE602AB0EE428AF0EE628A3046FEF75D
:101C80005EFC41EC100BB0EE491AF0EE691A02F05E
:101C900063FC53EC182B51EC100BFEF7D8FB41EC16
:101CA000100B03F0E5FAB0EE408AF0EE608AA06A0D
:101CB000FEF775FC53EC182BFEF728FBFEF782FCB1
:101CC000A860206495ED030A84ED110ABDEC048B35
:101CD00070BD0000C81000205C0300200000000060
:101CE000000000400029016802D041F0010101E03C
:101CF00021F00101016070472DE9F043016821F0F6
:101D0000010101600021016041608160C1600161E9
:101D1000212141613C493C4A3D251039904202D184
:101D20008D60BDE8F083384A4FF4746618329042F3
:101D300001D18E60F5E7344A4FF474173032904287
:101D400001D18F60EDE7304A4FF0746C4832904219
:101D500002D1C1F808C0E4E72B4B2C4A603398420B
:101D600001D1CA60DDE7284C294B7834A04201D16B
:101D7000CB60D6E7DFF89080264C08F1900840450C
:101D800001D1CC60CDE7DFF880804FF03D5908F1FC
:101D9000A808404502D1C1F80C90C2E71E49DFF8FF
:101DA00078800839404501D10D60BAE71A4D1835E1
:101DB000A84201D10E60B4E7174D3035A84201D1D9
:101DC0000F60AEE7144D4835A84202D1C1F800C0FB
:101DD000A7E7114D10496035091FA84201D10A60DB
:101DE0009FE70D4A7832904201D10B6099E70A4A89
:101DF0009032904201D10C6093E7074AA83290429A
:101E00008FD1C1F800908CE7106002403D000020A7
:101E1000400F002000003D201064024001460020D9
:101E20000968C90700D001207047406880B2704738
:101E300030B50368124ACC6813400A682243D1E9DE
:101E400005452C432243CC6922430C6A22434C6A49
:101E500022438C6A22434C6B22438C6B22431A43ED
:101E60000260426922F00703D1E90B2422431A439E
:101E700042610A6942604A6882608968C16030BD17
:101E80003F801CF070B50D460646012190B0480514
:101E900001F092FC194C2046FFF72EFF2046FFF779
:101EA000BDFF0028FAD14FF0206000900022CDE95C
:101EB00003251348CDE901060015CDE90520801062
:101EC000CDE908200002CDE90A0207920C920D929A
:101ED000694620460E92FFF7ABFF01212046FFF72F
:101EE00001FF2046FFF79AFF0128FAD1044801229A
:101EF0004021001F02F036F910B070BD586002405A
:101F00000478004070B50D460646012190B04805A2
:101F100001F052FC194C2046FFF7EEFE2046FFF779
:101F20007DFF0028FAD14FF0206000900022CDE91B
:101F300003251348CDE901060015CDE905208010E1
:101F4000CDE908200002CDE90A0207920C920D9219
:101F5000694620460E92FFF76BFF01212046FFF7EE
:101F6000C1FE2046FFF75AFF0128FAD1044801229A
:101F70004021001F02F0F6F810B070BDA0600240D2
:101F8000047C004070B50D460646012190B08805DE
:101F900001F012FC194C2046FFF7AEFE2046FFF779
:101FA0003DFF0028FAD14FF0006000900022CDE9FB
:101FB00003251348CDE901060015CDE90520801061
:101FC000CDE908200002CDE90A0207920C920D9299
:101FD000694620460E92FFF72BFF01212046FFF7AE
:101FE00081FE2046FFF71AFF0128FAD1044801229A
:101FF0004021001F02F0B6F810B070BD40640240EE
:102000000410014070B50D460646012190B0480508
:1020100001F0D2FB194C2046FFF76EFE2046FFF779
:10202000FDFE0028FAD14FF0006000900022CDE9BB
:1020300003251348CDE901060015CDE905208010E0
:10204000CDE908200002CDE90A0207920C920D9218
:10205000694620460E92FFF7EBFE01212046FFF76E
:1020600041FE2046FFF7DAFE0128FAD1044801229A
:102070004021001F02F076F810B070BD8860024069
:102080000444004070B50D460646012190B0480555
:1020900001F092FB194C2046FFF72EFE2046FFF779
:1020A000BDFE0028FAD14FF0006000900022CDE97B
:1020B00003251348CDE901060015CDE90520801060
:1020C000CDE908200002CDE90A0207920C920D9298
:1020D000694620460E92FFF7ABFE01212046FFF72E
:1020E00001FE2046FFF79AFE0128FAD1044801229A
:1020F0004021001F02F036F810B070BD2860024089
:102100000448004070B50D460646012190B0880590
:1021100001F052FB194C2046FFF7EEFD2046FFF779
:102120007DFE0028FAD14FF0206000900022CDE91A
:1021300003251348CDE901060015CDE905208010DF
:10214000CDE908200002CDE90A0207920C920D9217
:10215000694620460E92FFF76BFE01212046FFF7ED
:10216000C1FD2046FFF75AFE0128FAD1044801229A
:102170004021001F01F0F6FF10B070BD286402403E
:10218000041401400848002120F8141F4180818078
:10219000C180C1828172C1728181C18101828174D9
:1021A000C1740249C161704720080020B1210008B4
:1021B0000188C1F30A022049A2F5806221F8142F98
:1021C00042788378D20842EA4312C2F30A02A2F5A7
:1021D00080624A808278C378920942EA8302037956
:1021E00042EA8322C2F30A02A2F580628A8002795F
:1021F0004379520842EAC312C2F30A02A2F580628E
:10220000CA80427992098A724279C2F30112CA7273
:10221000C2888A810289CA8142890A82027B8A74C1
:10222000427BCA74C289CA82008AC0F30A00A0F540
:1022300080600881704700002008002010B50178F8
:102240000022FF2923D14178FF2920D1C378002122
:102250005B1C04E04418491CA4782244D2B28B428F
:10226000F8DCD1434279C9B28A4210D1817802792F
:1022700001EB8103064901EB830383F82920B0F8C1
:102280000520807800EB800001EB8000C28610BD45
:10229000600D00200FB449292DE9FC4180469DF8CE
:1022A00028000F4610D000EB4000001DC4B2201DD6
:1022B00003F020FE06469DF82800800003F01AFE79
:1022C00005460BA8002106E04000EEE730F8042B9D
:1022D00025F81120491C9DF82820B1EB420FF5DBB1
:1022E0008DF80080FF2001963070019948700199A7
:1022F000FE2088700198C47001998320492F0871CD
:102300000198477104D0019902208871002033E0C0
:1023100001990120887100200721082210E000BFE8
:10232000019F01EB400C15F8203007F80C3005EB4D
:102330008003019F02EB400C9B7807F80C30401C97
:102340009DF828309842EBDB1AE000BF00EB40011B
:10235000019FCB1D15F82020FA5405EB8002DDF813
:1023600004C001F1080793780CF807305288019BEC
:10237000120A0931401C5A549DF828108842E5DBA6
:102380000020611C09E000BF019F821CBDF80230E3
:10239000BA5C401C1A44ADF802208842F4DBBDF858
:1023A00002000199E41CC043085508480023142288
:1023B0006946006805F094FA284603F059FD304656
:1023C00003F056FDBDE8FC015DF814FB340000206D
:1023D0007047B5EEC00AF1EE10FA01DCB1EE400A2A
:1023E0007047000004480349016004494160044902
:1023F000816070470524000814080020D3230008DA
:102400005924000890ED001AB5EEC01AF1EE10FA4A
:1024100011DBB4EEC01AF1EE10FA01DAB0EE410AA7
:1024200080ED000AB4EEE00AF1EE10FA11D800BF18
:10243000C0ED000A7047B4EEC01AF1EE10FA01D9EF
:10244000B0EE410A80ED000AB4EEE00AF1EE10FAB7
:10245000EEDAF0EE400AEBE790ED001A70EE411A6A
:10246000B0EE410A00EEA10A80ED000A7047F0B517
:102470000023012403270D6804FA03F21540954256
:1024800042D1D0F800C05E0007FA06F52CEA050C30
:10249000C0F800C091F804C0D0F800E00CFA06FCC7
:1024A0004CEA0E0CC0F800C091F804C0BCF1010F5A
:1024B00002D0BCF1020F1FD1D0F808C02CEA050CE5
:1024C000C0F808C091F805C0D0F808E00CFA06FC86
:1024D0004CEA0E0CC0F808C0D0F804C02CEA020C7C
:1024E000C0F804C0426891F806C00CFA03FC1FFA59
:1024F0008CFC42EA0C024260C268AA43C260CA79FC
:10250000C568B2402A43C2605B1C102BB3D3F0BD38
:102510004B07DB0E9A40C90810B500EB8100016A39
:102520000F249C40A1430162016A1143016210BD66
:1025300041837047018370470AB10183704741832B
:102540007047000010B50022C37811461B1D04E03F
:10255000445C491C2244D2B2C9B28B42F8D8415CD7
:1025600091422BD181884ABA15498A85C28852BACC
:10257000CA85028952BA0A86428952BA00EE102AE6
:10258000F8EE400A9FED0F0A80EE801A81ED0D1AD9
:10259000828952BA12B200EE902AF8EEE00A80EE7A
:1025A000801A81ED0E1AC08940BA00B200EE900A7E
:1025B000F8EEE00A80EE801A81ED0F1A10BD0000DF
:1025C000600F00200000C84202490148C8657047FA
:1025D00045250008600F0020FEE7000070B5404967
:1025E0004FF4B4702DED028B40F6E662A1F8600264
:1025F0003C4840F687519FED3C8A20F8301F40F65A
:10260000B831018540F61841A0F8501040F63E015F
:10261000A0F878104FF47A7181828287A0F8641054
:1026200040F6A911A0F88C1040F61401A0F8A010F3
:102630004FF40061A0F8B410A0F8C81020F8DC1F17
:1026400040F66C41818240F63401018524484FF404
:10265000FA744FF44875B0EE481AF0EE480AB0EE3E
:10266000000A23462A4603210C3001F065F8B0EE3B
:10267000481AF0EE480AB0EE000A23462A46032123
:102680001A4801F059F81948B0EE481AF0EE480A15
:10269000B0EE480AC8234FF4967203217C3801F04B
:1026A0004BF812489FED121AF0EE480AB0EE480AB5
:1026B000C823224603217C3001F03EF8B0EE481AD0
:1026C000F0EE480ABDEC028B6423BDE87040074879
:1026D0000321B1EE000A1A46F83001F02DB80000CF
:1026E0009C050020600D002000000000A0060020D6
:1026F0000AD7233C0EB50E22CDE9000202910D232C
:1027000002221E210620FFF7C5FD0EBD2DE9F04F68
:102710008A4606462DED028B174640EA0A0097B01E
:1027200038439FEDDA8ADFF8688309D0D8ED040AD0
:10273000D84A10EE901A914205DBB0EE480A04E048
:1027400088ED048A03E030EE800A88ED040AD24C5A
:10275000D248D4ED150A94ED0E0A00F05BFEBDEEF2
:10276000C00ACE4D10EE100A883DA880D4ED160A9E
:1027700094ED0F0A05F5C07000F04CFEBDEEC00AE6
:10278000444610EE100AB7EE000AE880B81B00B20B
:102790008146D8ED040A00F0D9F9DFF80483B4F9D2
:1027A0000420B0EE480AB8F80C11891A08440890C1
:1027B0004846D4ED040A00F0C9F9B4F90410B7EEA4
:1027C000000A0144B8F8F8000A18B81900B20792D4
:1027D0008146D4ED040A00F0B9F9B8F8E410B4F970
:1027E0000420B0EE480A891A084406904846D4ED01
:1027F000040A00F0ABF9B4F90410DFF8A892014420
:10280000B8F8D00000EE10AA0A180592D9F8040012
:10281000B8EEC00A8047F0EE408A00EE106AD9F8A0
:102820000400B8EEC00A804778EE808A00EE107A85
:10283000D9F80400B8EEC00A804738EE800AD4ED1B
:10284000040ABDEEC00A10EE100AB7EE040A00B288
:1028500000F02AF9B8F8BC10B4F90220B7EE000A6B
:102860001144B5F90420891A0844B5F90610084442
:102870000490D4ED040A504600F0A6F9B4F9001013
:10288000B5F904200144B8F8A80000EE10AA1044DD
:102890000A180392D9F80400B8EEC00A8047F0EE97
:1028A000408A00EE106AD9F80400B8EEC00A8047EA
:1028B00078EE808A00EE107AD9F80400B8EEC00AEB
:1028C000804738EE800AD4ED040ABDEEC00A10EE4F
:1028D000100AB5EE000A00B200F0E6F8B8F894105D
:1028E000B4F90220B0EE480A1144B5F90420891A5F
:1028F000B5F90620891A08440290D4ED040A50461E
:1029000000F062F9B4F90010B5F904200144B8F8F8
:10291000800000EE10AA10440A180192D9F80400B1
:10292000B8EEC00A8047F0EE408A00EE106AD9F88F
:102930000400B8EEC00A804778EE808A00EE107A74
:10294000D9F80400B8EEC00A804738EE800AD4ED0A
:10295000040ABDEEC00A10EE100AB7EE040A00B277
:1029600000F0A2F8B8F86C10B5F90420B7EE000A30
:102970001144B4F902201144B5F90620891A08441B
:102980000090D4ED040A504600F01EF9B8F8581033
:10299000B4F9002000EE10AA1144B5F90420B8EEF5
:1029A000C00A891A00EB010BD9F804008047F0EE49
:1029B000408A00EE106AD9F80400B8EEC00A8047D9
:1029C00078EE808A00EE107AD9F80400B8EEC00ADA
:1029D000804738EE800AD4ED040ABDEEC00A10EE3E
:1029E000100AB5EE000A00B200F05EF8B8F8442014
:1029F000B5F90410B4F902301144B5F90620D4ED4C
:102A0000040A1A4411444618B0EE480A504600F031
:102A1000DBF8B8F83010B4F900200C230A44B5F9FB
:102A2000041013AD511ADDE9072401440B2085E899
:102A30001D00DDE905240FAD0A23092085E81D00EE
:102A4000DDE903240BAD0823072085E81D00DDE93F
:102A5000012407AD0623052085E81D000098042306
:102A6000CDF810B0CDE905300220CDE900100324E7
:102A7000CDE9026401230C221E210620FFF70AFC87
:102A800017B0BDEC028BBDE8F08F00000000000025
:102A900044030020DB0FC940600F00202406002003
:102AA000600D00201408002010B54FF448712DED82
:102AB000048BB0EE408A884201DD084602E01C4CDF
:102AC000A04200DB044610EE900AFDF768FD41ECE1
:102AD000190B18EE100AFDF762FD41EC180B1548B2
:102AE00000EE104A4068B8EEC00A804710EE100AA7
:102AF000FDF755FD41EC100BB0EE494AF0EE694A86
:102B00009FED0D3BB0EE482AF0EE682A9FED0C1BBE
:102B1000FFF702F851EC100BFDF722FD0A4900B255
:102B20000028888100DB0020BDEC048B10BD000074
:102B3000E0FCFFFF1408002000000000000000007F
:102B4000000000000000F03F4403002010B564289E
:102B50002DED048BB0EE408A01DD642003E06FF0C0
:102B60006304A04200DB044610EE900AFDF717FD57
:102B700041EC190B18EE100AFDF711FD41EC180B92
:102B80002046FDF7DCFC41EC100BB0EE494AF0EEBC
:102B9000694A9FED093BB0EE482AF0EE682A9FEDA6
:102BA000081BFEF7B9FF51EC100BFDF7D9FCBDEC8B
:102BB000048B00B210BD0000000000000000000007
:102BC000000000000000F03F10B54FF4C8712DED7B
:102BD000048BB0EE408A884201DD084602E0154CC5
:102BE000A04200DB044610EE900AFDF7D8FC41EC51
:102BF000190B18EE100AFDF7D2FC41EC180B204619
:102C0000FDF79DFC41EC100BB0EE494AF0EE694A2D
:102C10009FED093BB0EE482AF0EE682A9FED081BB5
:102C2000FEF77AFF51EC100BFDF79AFCBDEC048B1C
:102C300000B210BD70FEFFFF0000000000000000A9
:102C4000000000000000F03F1CB50121082000F04A
:102C5000B3FD00208DF8040001218DF807108DF8D8
:102C600005008020009069460148FFF700FC1CBD6C
:102C7000000C02402DE9FC410121122000F09CFDD6
:102C800001258DF8045000248DF80640134F8DF86F
:102C900007404FF47E468DF8054069463846009659
:102CA000FFF7E5FB8DF804508DF806408DF80740DE
:102CB0008DF8054030200A4C009069462046FFF709
:102CC000D6FB012231463846FFF736FC012230217F
:102CD0002046FFF731FCBDE8FC81000000100240F7
:102CE000000402400FB40098A0F20120042815D27D
:102CF000BDF80B10C0B24ABAC0EBC001084820F8BA
:102D00001120BDF80D2000EB410052BA4280BDF801
:102D10000F1049BA81809DF81110817104B070477D
:102D20009C0800201249087008208873002008734E
:102D300048734FF40070486001F11800B0F8742433
:102D4000130ACB730A74B0F88224130A4B748A7482
:102D5000B0F89024130ACB740A75B0F89E040023CF
:102D6000020A4A75887503481422006804F0B8BD49
:102D700084080020500000200FB40098A0F2012029
:102D8000042815D2BDF80B10C0B24ABAC0EBC0017E
:102D9000084820F81120BDF80D2000EB410052BA80
:102DA0004280BDF80F1049BA81809DF811108171E1
:102DB00004B070479C0800201049087008208873F0
:102DC0000020087348734FF40070486001F1300030
:102DD0000289130ACB730A74C28A130A4B748A7469
:102DE000828C130ACB740A75408E0023020A4A753E
:102DF000887503481422006804F072BD6C08002036
:102E0000500000200FB40098A0F20520022815D22F
:102E1000C0B200EB40120A48BDF80B1000EBC20034
:102E200049BA20F84C1FBDF80D1049BA4180BDF8D1
:102E30000F1049BA81809DF81110817104B070475C
:102E40009C0800201249087008208873002008732D
:102E5000487340F2FF10486001F14800B0F8542078
:102E6000130ACB730A74B0F85C21130A4B748A748A
:102E7000B0F86422130ACB740A75B0F86C0300230F
:102E8000020A4A75887503481422006804F028BDB8
:102E9000540800205000002030B500EB40122848B4
:102EA00040F6FE7500EBC204B1F90020B4F85A00F8
:102EB000A0F60103AB420DD200F50060824200DCB7
:102EC000104600B20880B4F85A20A2F5006218E05B
:102ED000088030BDB0F5006F17D200F500639A424C
:102EE00003DD00F58050824200DB134618B20880F3
:102EF000B4F85A2002F580539842E9DD41F2FF739D
:102F00001A449042E4DA1046E2E7A0F580539A4270
:102F100003DDA0F50060824200DB104600B20880AD
:102F2000B4F85A201346A2F5B852FF3A904203DD96
:102F3000A3F58053984200DB02460A8030BD0000B2
:102F40009C08002070B5234C9FED231A0546B4F968
:102F50000020B2F5005F07DBA2F5F852FF3A00EE61
:102F6000102AB8EEC00A09E000EE102A00EE901A0E
:102F7000B8EEC00AF8EEE00A00EE810ABDEEC00A23
:102F800010EE100A02B22280002A07DA41F6FF7022
:102F9000104400EE100AF8EEC00A09E000EE102A14
:102FA000F8EEC00A00EE101AB8EEC00A40EE010AB0
:102FB0000849BDEEE00A10EE100A20802846FFF70F
:102FC0006BFF064A05EB451102EBC1012088A1F811
:102FD000580070BD6C030020CDCCCC3D9C08002077
:102FE0000FB40098A0F2052002280DD2C0B200EB69
:102FF00080020648BDF80B1000EB420049BA018779
:10300000BDF80D1049BA418704B070479C080020F4
:10301000FEE7000070B537484FF47A612DED028B62
:103020004FF4FA74A0F85A10A0F86211A0F86A12CE
:10303000A0F8721341F6FF71A0F8C010A0F8C811F3
:10304000A0F8D012A0F8D8132B49C0F8A4142B492B
:10305000C0F8A8142A49C0F8AC142A49C0F8B01422
:103060002949C0F8B4142949C0F8B8142849C0F84F
:10307000BC1428499FED288ADFED288AC0F8C014C7
:1030800046F2A815B0EE481AF0EE680AB2EE040A4D
:1030900023462A4603215C3000F04EFBB2EE041AB0
:1030A000F0EE680A9FED1E0A42F210732A460321D1
:1030B0001C4800F041FBB0EE481AF0EE680AB2EE90
:1030C000040A234644F620620321174800F034FB2B
:1030D000F0EE680ABDEC028B2A46BDE87040B1EE06
:1030E000041AB2EE040A41F2883303210F4800F0BB
:1030F00023BB00009C080020452E0008B92D0008C5
:10310000252D0008452F0008052E0008792D000800
:10311000E52C0008E12F00083333334000000000A5
:1031200000004842000A0020080B0020100C00207C
:103130007047000030B50F22C47801780123FCB13C
:10314000144C246801F1E02104F4E064C4F5E06467
:10315000C4F30724C4F10405E2404478AC40857808
:10316000154025432A0181F80024007800F01F0152
:103170008B404009800000F1E020C0F8003130BDF4
:1031800001F01F0083404809800000F1E020C0F8F2
:10319000803130BD0CED00E002490843024908606F
:1031A000704700000000FA050CED00E070B5002447
:1031B00004F1B000C0B2002100F0F6F800210220B6
:1031C00000F0F2F80021102000F0EEF800250121B7
:1031D000002000F0E9F86D1CEDB2802DF7D3641CDF
:1031E000E4B2082CE4D370BD7CB50121142000F0BA
:1031F000FBFA6C20012400908DF8044000208DF82B
:10320000060002205A4D8DF8050069462846FFF752
:103210002EF96C212846FFF78DF9564D6946284650
:103220000094FFF724F901212846FFF783F9524E55
:10323000E403694630460094FFF719F92146304609
:10324000FFF778F901212846FFF774F9642002F0AE
:103250009FFD01212846FFF76BF9642002F098FDDD
:1032600001212846FFF766F90021AE2000F09CF806
:103270000021022000F098F80021102000F094F8BE
:103280000021402000F090F80021812000F08CF80F
:103290000021CF2000F088F80021A12000F084F860
:1032A0000021C82000F080F80021A62000F07CF862
:1032B0000021A82000F078F800213F2000F074F8E9
:1032C0000021812000F070F80021FF2000F06CF850
:1032D0000021D32000F068F80021084600F064F8CF
:1032E0000021D52000F060F80021802000F05CF87B
:1032F0000021D92000F058F80021F12000F054F806
:103300000021DA2000F050F80021122000F04CF8E3
:103310000021DB2000F048F80021402000F044F8B4
:103320000021202000F040F80021022000F03CF8AD
:1033300000218D2000F038F80021142000F034F82E
:103340000021A42000F030F80021A62000F02CF885
:103350000021AF2000F028F80021AF2000F024F871
:10336000FFF724FF0021084600F008F87CBD0000AC
:1033700000100240000802400018024010B5044648
:10338000B031C8B2002100F00FF8102040EA14104C
:10339000002100F009F804F00F00BDE8104040F0F3
:1033A00001000021AFF3008070B5194E05460029D9
:1033B0004FF00801304602D0FFF7BCF801E0FFF7FC
:1033C000B7F820213046FFF7B3F800240421304637
:1033D000FFF7AEF828064FF04001304602D5FFF760
:1033E000A9F801E0FFF7A4F804213046FFF7A2F89E
:1033F0006806641C050EE4B2082CE7D32021304691
:10340000FFF798F83046BDE870400821FFF792B802
:103410000010024000B530EEC01A80ED080AC0ED81
:10342000050A80ED0B1AD0ED171A01469FEDC02A50
:1034300030EEC00AF5EEC01AB1EE400AF1EE10FA15
:103440000ED0B5EEC01AF1EE10FA02DDF0EE410A30
:1034500001E0F0EE400AF4EEE10AF1EE10FA15DCBC
:10346000D1ED181AF5EEC01AF1EE10FA11D0B5EE42
:10347000C01AF1EE10FA02DDF0EE410A01E0F0EEC2
:10348000400AF4EEE10AF1EE10FA02D2B0EE420A7E
:1034900000BD8B6E01F140000246032B02D0042BCD
:1034A00075D024E1A348814272D1B5EEC01AF1EE85
:1034B00010FA4BD2B1F86400B5EEC01A00EE900AD3
:1034C000F8EE601AF1EE10FA02DDF0EE410A01E0CA
:1034D000F0EE400A71EEE00AF5EEC00AF1EE10FAE5
:1034E00014DD00EE900AF8EE601A14E0F0EE410AE6
:1034F00002E000BFF0EE400AB5EEC01A71EEE01A2D
:10350000F1EE10FA0DDDF0EE410A0CE0434200EE60
:10351000903AF8EEE01AB5EEC01AF1EE10FAE9DDD5
:10352000E4E7F0EE400AF4EEE01AF1EE10FA60D2B1
:1035300000EE900AB5EEC01AF8EE600AF1EE10FA4D
:1035400001DDB0EE410A30EEC01A52E0B5EEC01A0D
:10355000F1EE10FA4FDDB1F86400B5EEC01A00EEDE
:10356000900AF8EE601AF1EE10FA02DDF0EE410A70
:1035700001E0F0EE400A71EEE00AF5EEC00AF1EE6D
:1035800010FA17DD00EE900AF8EE601A17E06CE012
:1035900031E000BFF0EE410A02E000BFF0EE400A69
:1035A000B5EEC01A71EEE01AF1EE10FA0DDDF0EE94
:1035B000410A0CE0434200EE903AF8EEE01AB5EE14
:1035C000C01AF1EE10FAE9DDE4E7F0EE400AF4EE9D
:1035D000E01AF1EE10FA0CD2B5EEC01AF1EE10FAC4
:1035E00001DDB0EE410A00EE900AF8EE600A30EE1E
:1035F000601A81ED0B1AD1ED000A91ED0B0A10460D
:1036000060EE800AC1ED0F0AD1ED100A91ED011AAA
:1036100041EE000AC1ED100AD1ED0A0A30EE600A4F
:10362000D1ED020A20EE200A81ED110A91ED1C0A6B
:10363000B8EE400A02F097FB91ED0F0AD1ED100AA7
:1036400001F1480030EE200AD1ED110A30EE200AD7
:1036500081ED120A91ED1B0AB8EE400A02F083FBDD
:1036600091ED120A81ED130A41E091ED0A0AD1EDC4
:10367000001A71EE400A60EEA10AC1ED0F0AD1ED09
:10368000010A60EE810AC1ED100AF0EE000A00EEB8
:10369000601A91ED090AD1ED020A31EE000A20EE1E
:1036A000200A81ED110A91ED1C0AB8EE400A02F0E1
:1036B0005AFB91ED0F0AD1ED100A01F1540030EEE2
:1036C000200AD1ED110A30EE200A81ED140AD1ED65
:1036D000160A30EE800A81ED150A91ED1B0AB8EE4C
:1036E000400A02F040FB91ED150A81ED160A91EDBA
:1036F0000A0A81ED090A91ED0B0A81ED0A0A91EDA2
:10370000070A81ED060A91ED080A81ED070A91ED9D
:10371000040A81ED030A91ED050A81ED040A886E21
:10372000032802D091ED150A00BD91ED120A00BDEB
:10373000000000009807002030B4034C4467034C9D
:10374000846730BC02F00CBC615F00086F5F00084A
:103750001CB50121092000F02FF800208DF804008D
:1037600001218DF807108DF8050040F20F700090D0
:1037700069460548FEF77BFE202000906946034815
:10378000FEF775FE1CBD000000000240000C024068
:1037900001780D290DD141780A290AD1817E0A29A3
:1037A00007D1C17E0D2904D11822811C0148FCF7E4
:1037B00079BD7047E4100020044A0029116801D047
:1037C000014300E08143116070470000303802403F
:1037D000044A0029116801D0014300E081431160CF
:1037E0007047000040380240044A0029116801D0A7
:1037F000014300E0814311607047000044380240FB
:1038000070B5204A1168204C11F00C0104D01F4EF5
:10381000042903D0082903D004601BE0066019E0E6
:103820001849091F0B68C3F380550B6803F03F0369
:1038300015B1B6FBF3F301E0B4FBF3F30C680968D0
:10384000C4F388146343C1F30141491C4900B3FB2D
:10385000F1F1016011680F2303EA11110C4B5C5C5C
:103860000168E14041601468072505EA94241C5D65
:1038700021FA04F48460126805EA52329A5CD1405D
:10388000C16070BD083802400024F400001BB7007E
:10389000F003002030B4114B012400251C701D736F
:1038A0005D7308259D73072816D80F2914D844EA9C
:1038B0000110C0B25860DA735520187458749874A7
:1038C000D874187558759875054800231422006837
:1038D00030BC024904F004B830BC7047D80F002057
:1038E0005000002030B4114A0124002314701373D7
:1038F000082453739473072815D80F2913D843EA63
:103900000110C0B250605520D07310745074907480
:10391000D0741075507590750548142203490068DD
:1039200030BC03F0DDBF30BC70470000C00F00208A
:103930005000002030B587B001258DF800500025DB
:103940008DF80C508DF80D50082504248DF80E507C
:1039500007282ED80F292CD844EA0110C0B20190B4
:1039600041F28830824201DD024608E0124882427C
:1039700001DA024601E0002A01DA504202B2100ADE
:103980008DF80F008DF81020180A8DF811005520C1
:103990008DF814008DF812308DF815008DF8130095
:1039A0008DF816000548002314226946006803F0CC
:1039B00097FF07B030BD000078ECFFFF50000020FB
:1039C00010B501210020FFF78DFF02210020FFF735
:1039D00089FF03210020FFF785FF4FF47A7003F081
:1039E000FDF9032201210020FFF754FF03220221E9
:1039F0000020FFF74FFF032211460020FFF74AFF88
:103A0000BDE810404FF4FA7003F0E8B91CB500208F
:103A10002E49019000900A6842F480320A604FF407
:103A2000A0430A6802F400320092019A521C0192EB
:103A3000009A12B9019A9A42F3D10A68920342D5C8
:103A40000120009021484030026842F0805202601C
:103A50001F48026842F4404202601C4A0832136860
:103A60001360136843F400431360136843F4A053D6
:103A70001360141F174B23600B6843F080730B60B7
:103A80000B689B01FCD5016841F4803101604168FD
:103A9000C903FCD5016841F4003101604168890324
:103AA000FCD50D4940F205700860106820F0030055
:103AB0001060106840F0020010601068C0F38100D0
:103AC0000228FAD11CBD00901CBD00000038024045
:103AD000007000400C5A4007003C024070B5924D07
:103AE00092482DED068BD5ED100A95ED0A0AFFF7E9
:103AF00091FC8F4C8D4884ED010AD5ED110A95EDAE
:103B00000B0A7C30FFF786FC84ED020A10EE100AE7
:103B1000FCF745FD41EC100B9FED868BB0EE481A8B
:103B2000F0EE681A00F018FDB0EE402AF0EE602AC0
:103B3000B0EE429AF0EE629A6068FCF730FD41EC1C
:103B4000100BB0EE481AF0EE681A00F005FD53ECC9
:103B5000192B51EC100BFCF7D9FB41EC100B01F0C9
:103B600087FB51EC100BFCF72DFDE06095ED100A82
:103B7000D5ED0A0A30EE600A84ED050A95ED110ACA
:103B8000D5ED0B0A30EE600A84ED060A10EE100A3D
:103B9000FCF705FD41EC100BB0EE481AF0EE681A88
:103BA00000F0DAFCB0EE409AF0EE609A6069FCF743
:103BB000F6FC41EC100BB0EE481AF0EE681A00F07B
:103BC000CBFCB0EE401AF0EE601A53EC192B51EC1E
:103BD000110BFCF79BFB41EC100B01F049FB51EC86
:103BE000100BFCF7EFFC2061E869FCF7D8FC9FEDB7
:103BF000538B53EC182BFCF730FC41EC100B01F00D
:103C0000D3FAB0EE409AF0EE609A94ED030AD4ED48
:103C1000060A94ED041A60EE200A80EE810A10EE86
:103C2000100AFCF7BCFC53EC192BFCF716FC41EC1A
:103C3000190BE869FCF7B3FC53EC182BFCF70DFCEF
:103C400041EC100B00F024FCB0EE40AAF0EE60AAAC
:103C500094ED030AD4ED050A94ED041A60EE200AEF
:103C600080EE810A10EE100AFCF799FC53EC1A2B37
:103C7000FCF7F3FB53EC192BFCF748FBFCF770FC4B
:103C80002A4E083E3080E869FCF789FC53EC182B7B
:103C9000FCF7E3FB41EC100B00F0FAFBB0EE409AAE
:103CA000F0EE609A94ED030AD4ED060A94ED041A3E
:103CB00060EE200A80EE810A10EE100AFCF76FFC1D
:103CC00053EC192BFCF7C9FB41EC190BE869FCF725
:103CD00066FC53EC182BFCF7C0FB41EC100B01F019
:103CE00063FAB0EE408AF0EE608A94ED030AD4EDF8
:103CF000050A20EE200AD4ED040A80EE201AB1EE67
:103D0000410A10EE100AFCF74AFC53EC182BFCF7A2
:103D1000A4FB53EC192BFCF7F9FAFCF721FC70809B
:103D2000BDEC068B70BD0000C810002028040020E8
:103D30006C0000200000000000000040439852A2E8
:103D400046DF913F10B5502080F31188BFF34F8FAD
:103D5000BFF36F8F03F0E8FF18B104494FF08050B4
:103D60000860002080F3118810BD000004ED00E021
:103D7000124810B5016841F47001016010480168F3
:103D800041F0010101600E4A002108321160026811
:103D90000C4B1A400260031D0B4A1A60026822F4A1
:103DA0008022026006480C300160FFF72FFE0349B5
:103DB0004FF000608039086010BD000088ED00E021
:103DC00000380240FFFFF6FE1030002410B5094C09
:103DD0000121204600F01FF8002809D00649086894
:103DE000401C08602046BDE81040012100F006B8E4
:103DF00010BD0000001000401C000020C9430182DB
:103E000070470029018802D041F0010101E021F052
:103E100001010180704702460020138A92890B42FB
:103E200002EA010202D0002A00D001207047002AD5
:103E3000828901D00A4300E08A43828170470000F2
:103E400030B50288164B174C98420DD0A0420BD0CB
:103E5000B0F1804F08D0144DA84205D0134DA842B0
:103E600002D0134DA84203D122F070054A882A439C
:103E7000104DA84206D0104DA84203D022F4407540
:103E80000A892A4302804A68C2620A8802859842E7
:103E900001D0A04201D1897A01860121818230BD01
:103EA0000000014000040140000400400008004000
:103EB000000C004000100040001400407CB5104889
:103EC0000124CDE90040002320220EA1104803F078
:103ED000EBFE0B482502001DCDE9004000232A46D9
:103EE0000CA10F4803F0E0FE054800230830CDE99F
:103EF00000402A460BA10F4803F0D6FE7CBD00000F
:103F000010000020765461736B4C454400000000A3
:103F1000A9700008765461736B54657374000000D7
:103F200019750008765461736B4D6F6E69746F720A
:103F3000000000000172000838B50020134C00900A
:103F400040F22441204600F01CF900281DD0104DFD
:103F500000212846FDF7C6FE0F4800236A460D499A
:103F6000006803F06DFD009838B10C494FF08050A7
:103F70000860BFF34F8FBFF36F8F01212846FDF715
:103F8000B1FE0248001D0088208838BD007800403E
:103F900058600240141100203000002004ED00E0C1
:103FA00038B50020144C009040F22441204600F027
:103FB000E8F800281FD0114D00212846FDF792FE99
:103FC0002846FDF732FF02280FD10E4800236A462B
:103FD0000B49006803F034FD009830B10A49200411
:103FE0000860BFF34F8FBFF36F8F01212846FDF7A5
:103FF00079FEA088208838BD00100140406402404E
:10400000200800202000002004ED00E038B500204A
:10401000134C009040F22441204600F0B2F80028F2
:104020001CD0104D00212846FDF75CFE0F480023F0
:104030006A460D49006803F003FD009830B10C4951
:10404000A0040860BFF34F8FBFF36F8F0121284694
:10405000FDF748FE0248001D0088208838BD00009A
:104060000044004088600240C81000202400002066
:1040700004ED00E038B50020164C009040F22441D9
:10408000204600F07EF8002822D0134D002128465B
:10409000FDF728FE2846FDF7C8FE022810D110487B
:1040A00000236A460D49006803F0CAFC009838B145
:1040B0000C494FF080500860BFF34F8FBFF36F8FF4
:1040C00001212846FDF70EFE0248001D00882088C9
:1040D00038BD00000048004028600240600F00200A
:1040E0002800002004ED00E038B50020134C0090BB
:1040F00040F22441204600F044F800281DD0104D25
:1041000000212846FDF7EEFD0F4800236A460D49C1
:10411000006803F095FC009838B10C494FF08050CE
:104120000860BFF34F8FBFF36F8F01212846FDF763
:10413000D9FD0248001D0088208838BD00140140C8
:1041400028640240600D00202C00002004ED00E0F7
:104150000029818902D041F4005101E021F400518D
:1041600081817047002A828A01D00A4300E08A4395
:10417000828270470246002012880A4200D0012045
:10418000704730B501F01F0201240025C1F342132E
:1041900004FA02F2012B0FD0022B0FD0838A4FEAD0
:1041A00011210088134204FA01F400EA040001D04E
:1041B00000B10125284630BD8389F0E7038AEEE788
:1041C00010B5C1F3421301F01F040121A140012BDE
:1041D00007D0022B07D01430002A026805D00A430A
:1041E00004E00C30F8E71030F6E78A43026010BDB7
:1041F0007FB50446008A0D4620F44051E888084304
:104200002082A08941F20C618843A9882A89114340
:104210006A8902431143A181A08A20F44071A889D0
:104220000843A0826846FFF7EBFA1A48844202D09E
:104230001948844201D1039800E00298A189090439
:1042400000EBC00101EB0010296801D5490000E036
:104250008900B0FBF1F26420B2FBF0F109010B0917
:104260006FF018056B4302EB8302A3891D044FF026
:10427000320306D503EBC202B2FBF0F000F00700F8
:1042800005E003EB0212B2FBF0F000F00F00084370
:1042900020817FBD0010014000140140C1F30801DE
:1042A0008180704710B50446FFF7F8FF8021204653
:1042B000FFF760FF0028F9D010BDFEE71CB5142100
:1042C0000022084603F09EFA2F4C00221C21206099
:1042D000142003F097FA142160600022084603F0CE
:1042E00091FA1421A0600022084603F08BFA1421F1
:1042F000E0600022084603F085FA206100220821D0
:10430000142003F07FFA606104F118000324CDE962
:104310000040002380221DA1214803F0C5FC1A485B
:1043200000231C30CDE9004080221EA1224803F06A
:10433000BBFC154800232030CDE9004080221FA19E
:10434000234803F0B1FC104800232430CDE900409D
:10435000802220A1244803F0A7FC0B48002328302A
:10436000CDE90040802221A1254803F09DFC0649AB
:1043700004202C31CDE900010023802221A1254811
:1043800003F092FC1CBD00002000002076546173F5
:104390006B557361727431526563656976650000AF
:1043A00041750008765461736B55736172743252B3
:1043B00065636569766500007575000876546173FC
:1043C0006B5573617274335265636569766500007D
:1043D000A1750008765461736B557361727436521F
:1043E0006563656976650000C5750008765461737C
:1043F0006B55736172743752656365697665000049
:1044000021750008765461736B557361727453653E
:104410006E640000E57500080FB4054B10B503A9E4
:10442000044A029801F0BEFB10BC5DF814FB0000CA
:10443000595E0008700300200FB4084B10B504A9A2
:1044400002AA039801F0AEFB044602A9002001F085
:1044500085FC204610BC5DF814FB00005D5D000883
:1044600003B401984100009850EAC12018BF04200D
:104470004A0D18BF40F0010040F2FF72B2EB515FED
:1044800008BF40F00200012808BF052002B07047B5
:1044900010B52F499FED2C1B2DED020B84B0059814
:1044A00020F000408842D8BF9DED040B2DDD294946
:1044B000884209D1049840B94FF0010001F06CFB2B
:1044C00001F02AFB06B010BD05DB9DED040B01F0E9
:1044D0000FFB06B010BD68469DED040B00F008FF11
:1044E00010F0030004BF9DED021B9DED000B0CD0EE
:1044F00001280ED09DED021B9DED000B022817D068
:10450000012001F045FA06B010BD01F00DF906B02A
:1045100010BD9DED021B9DED000B012001F038FA4E
:1045200051EC100B81F0004106B041EC100B10BDB6
:1045300001F0FAF851EC100B81F0004106B041ECAB
:10454000100B10BD00000000000000000000000083
:10455000FB21E93F0000F07F2DE9F04D2DED040B2C
:104560002DED0E8B96B0DDE92550279CDDF890A04F
:1045700025F0004624F00048BAF1000F14BF0121D5
:10458000002101EB4502FC4953184A1093422AD3FB
:10459000002814BF0123002303EB44030B44F74915
:1045A0008B4220D358EA00019FEDF59B76D0DFF8CF
:1045B000D8B35D4503D1BAF1000F05D188E0BAF157
:1045C000000F08BF002100D0012101EB450111F5CA
:1045D000001F08D8002814BF0121002101EB44016D
:1045E00011F5001F0BD99DED261B9DED240B16B078
:1045F000BDEC0E8B04B0BDE8F04D01F083BA00278E
:10460000002DBCBFE149884521DAE1498845A8BFB2
:1046100002271CDAC3451ADCDE4901EB28511429B4
:1046200008DDC1F1340220FA02F101FA02F28242FD
:104630000DD108E058B9C1F1140228FA02F101FACB
:1046400002F2424503D101F00101C1F1020756EA2D
:104650000A0124D1002C22DA002D18BF022F01D02C
:10466000012F0AD0022001F097FA16B0BDEC0E8B94
:1046700004B0BDE8F04D01F023BA022001F08CFA3D
:1046800001F01EFA51EC100B81F0004141EC100BCF
:1046900016B0BDEC0E8B04B0BDE8F08D18E09FEDB8
:1046A000BEAB9FEDBF8B002871D1B848804522D1A9
:1046B00005F1804010F5801008BFBAF1000F07D057
:1046C000B3450ADC002CA8BF9DED260BE0DA0DE017
:1046D000B0EE490AF0EE690ADAE7002C06DA9DED41
:1046E000260B51EC100B81F000416FE0AE4878448E
:1046F00090ED000BCCE7D8454DD1002C48DA2EB117
:1047000086423AD1BAF1000F42D126E0BAF1000F49
:1047100013D0022001F040FA01F00EFA8DED020BE9
:104720009DED240B8DED000B10EE900A039961F3C3
:104730001E0003909DED020BAAE78DED02AB9DEDEF
:10474000240B1AEE901A10EE900A8DED000B61F317
:104750001E0003909DED020B9AE78DED028B9DEDFF
:10476000240B18EE901A10EE900A8DED000B61F3F9
:104770001E0003909DED020B8AE709DA9DED240BE4
:1047800051EC190B53EC102BFCF713F81EE020E052
:104790009DED240B7CE786421BDAB4F1804F0DD0EF
:1047A000A4F10050B0F1FF5013D1002D11DB9DEDAD
:1047B000240B51EC100B02F019F807E09DED240BCF
:1047C00053EC102B51EC100B00F0C2BC41EC100B61
:1047D0005EE79DED240B51EC100B01F031FBBAF1BB
:1047E000000FCDE90E0142D19FED710B46B3A6F14A
:1047F000E040B0F17F600CD05E4538D1002D00DA8A
:10480000A7B3022F0CBF01204FF0FF30FBF797FE3C
:10481000DCE7002D01DD002C0DDA002D01DD002C80
:104820001FDB002D16DA002C14DB012F08BF9FEDD3
:10483000620B3FF42DAFB0EE4A0AF0EE6A0A27E7AA
:10484000022F18BF002D0CD0012F0AD1002DFFF62A
:104850001FAF06E0002DB8BF002C08DA012F3FF48F
:1048600017AFB0EE480AF0EE680A11E71BE001202E
:1048700000EBE57050EA070115D0791EB0EE498AC9
:10488000F0EE698A084308BF9FED4D8B4E48002526
:10489000804570DD4D494E48884514DDB0420DDB42
:1048A000002C19DB2FE0012001F076F916B0BDECE9
:1048B0000E8B04B0BDE8F04D01F02EB9B34502DC1B
:1048C000002C09DC1FE0864202DA002C1BDA03E030
:1048D0005E452BDD002C16DD022001F05DF901F0B4
:1048E0002BF98DED020B53EC1A2B51EC180BFBF747
:1048F000B4FDCDE900010399019861F31E00039016
:104900009DED020BC4E6022001F046F901F024F906
:1049100010EE901A18EE900A8DED020B8DED008BC3
:1049200061F31E0003909DED020BB1E69DED0E0BB1
:1049300053EC192B51EC100BFBF789FD9FED260B67
:10494000CDE9080153EC102B9DED080B51EC100B39
:10495000FBF783FD9FED221B53EC112BFBF77AFD38
:104960009DED081B53EC112BFBF777FD9FED1E1BF4
:1049700053EC112B3CE08CE0FFFF1F00FFFF0F000A
:10498000000000000000F03F0000F03F0000F07F5A
:104990000000404301FCFFFF000000000000F07F2A
:1049A0000000000000000000363A00000000000097
:1049B0000000000000000080000000000000F0FF88
:1049C000000000000000F0BF0000E0410000F043E4
:1049D000FFFFEF3F00000000000000000000D03F9C
:1049E000555555555555D53F000000000000E03F96
:1049F000FBF730FD9DED080B41EC1A0B53EC102B2F
:104A000051EC100BFBF729FD53EC1A2BFBF725FD9E
:104A100041EC1A0B9FEDFE0B53EC102B9DED080B98
:104A200051EC100BFBF719FD41EC1B0B9FEDFA0B42
:104A300051EC1A0B53EC102BFBF70FFD41EC1A0B4A
:104A40009FEDF70B53EC102B9DED080B51EC100B69
:104A5000FBF703FD53EC1A2BFBF7F9FC41EC1A0BA7
:104A600051EC1B0B53EC1A2BFBF750FC0690CDE9D5
:104A700006519DED060B53EC1B2B51EC100BFBF775
:104A8000E6FC53EC1A2BFBF7E5FC41EC100B00F0B5
:104A9000A1B90020B6F5801F0EDA9FEDE30B53ECB1
:104AA000102B9DED0E0B51EC100BFBF7D6FCCDE956
:104AB0000E016FF034000E4600EB2650A0F2FF37D7
:104AC000C6F31300DA4940F07F6646F0405688424C
:104AD000D8BF002408DDD7498142C8BF012403DCC8
:104AE0000024A6F580167F1CD348784400EBC40050
:104AF0000F9690ED00CB9DED0E0B53EC1C2B51EC63
:104B0000100BFBF7A4FC9DED0E0B41EC1B0B53ECC3
:104B10001C2B51EC100BFBF7F9FB41EC100B51EC8B
:104B2000190B53EC102BFBF744FE41EC1D0B51EC21
:104B30001B0B53EC1D2BFBF790FC41EC1A0BBF48F1
:104B40008DED10AB7844109590ED000B4FF00050B8
:104B500040EA660000EB84408DED080B00F5002074
:104B600009909DED080B53EC1C2B51EC100BFBF73F
:104B70006EFC9DED0E1B53EC112BFBF76BFC41EC17
:104B8000100B53EC102B9DED100B51EC100BFBF7A1
:104B900064FC9DED080B41EC1C0B53EC102B9DEDC0
:104BA000100B51EC100BFBF758FC53EC1B2BFBF7D5
:104BB00051FC53EC1C2BFBF74AFC53EC1D2BFBF771
:104BC0004CFC41EC1C0B53EC1A2B51EC1A0BFBF771
:104BD00044FC41EC1B0B9A480621B0EE4B0AF0EE68
:104BE0006B0A784400F058FEB0EE401AF0EE601AFE
:104BF000B0EE41DAF0EE61DA53EC1B2B51EC1B0BFB
:104C0000FBF72BFC53EC1D2BFBF727FC9DED100B4A
:104C100041EC1B0B53EC1A2B51EC100BFBF776FB02
:104C200053EC1C2BFBF719FC53EC1B2BFBF76EFB17
:104C30009DED100B41EC1B0B53EC102B51EC100BAA
:104C4000FBF70BFC41EC1D0B9FED7FEB53EC1E2B98
:104C5000FBF75CFB53EC1B2BFBF758FB0890CDE9F3
:104C600008519DED080B53EC1E2B51EC100BFBF77C
:104C7000EEFB53EC1D2BFBF7EAFB53EC1B2BFBF776
:104C8000E9FB9DED080B41EC1D0B53EC102B9DED4A
:104C9000100B51EC100BFBF7E0FB41EC1B0B53EC42
:104CA0001A2B51EC1D0BFBF7D8FB9DED080B41ECCB
:104CB0001A0B53EC102B51EC1C0BFBF7CEFB53ECF7
:104CC0001A2BFBF723FB41EC1A0B51EC1B0B53EC9B
:104CD0001A2BFBF71BFB0C90CDE90C519DED0C0B37
:104CE00053EC1B2B51EC100BFBF7B1FB53EC1A2BC5
:104CF000FBF7B0FB41EC1B0B9FED550B53EC102B5E
:104D00009DED0C0B51EC100BFBF7A7FB41EC1A0BC4
:104D10009FED510B51EC1B0B53EC102BFBF79DFB44
:104D200041EC1B0B9FED4E0B53EC102B9DED0C0B30
:104D300051EC100BFBF791FB53EC1B2BFBF7E6FA46
:104D400041EC100B4848784400EBC40090ED001B88
:104D500051EC100B53EC112BFBF7D8FA41EC1B0B69
:104D60003846FBF7ECFBCDE9080153EC1B2B51EC6B
:104D70001A0BFBF7CBFA41EC100B3C48784400EBE4
:104D8000C40090ED00CB51EC100B53EC1C2BFBF747
:104D9000BDFA9DED081B53EC112BFBF7B7FA0690FB
:104DA000CDE906519DED080B53EC102B9DED060B44
:104DB00051EC100BFBF74BFB53EC1C2BFBF747FBA9
:104DC00053EC1A2BFBF743FB53EC1B2BFBF742FB7B
:104DD00041EC100B9DED261B53EC102B8DED001BB1
:104DE00000959DED260B51EC100BFBF736FB9DED6E
:104DF000000B41EC1A0B53EC102B9DED260B51ECE4
:104E0000100BFBF724FB9DED061B53EC112B2FE041
:104E1000000000604715F73FFE822B654715F73FFE
:104E200044DF5DF80BAE543E00000000000040433C
:104E30008E9803007AB60B0082350000E035000042
:104E4000BA3400000000000000000000000008402C
:104E5000000000E009C7EE3FFD033ADC09C7EE3F62
:104E6000F5015B14E02F3EBE463300000033000026
:104E7000FBF7F3FA53EC1A2BFBF748FA9DED060B00
:104E800041EC1A0B53EC102B9DED000B51EC100B69
:104E9000FBF7E3FACDE90C019DED0C0B51EC1A0B7D
:104EA00053EC102BFBF732FACDE902010C46AA496C
:104EB0008C422FDB611A084318D19DED0C0B53EC8B
:104EC000102B9DED020B51EC100BFBF7C0FA41ECDF
:104ED0001B0B9FEDA30B51EC1A0B53EC102BFBF7A4
:104EE00015FA53EC1B2BFBF73BFD2DD2022000F0F3
:104EF00053FE00F021FE10EE901A18EE900A8DED90
:104F0000020B8DED008B61F31E0003909DED020BF3
:104F1000FFF7BEBB944A24F00041914214D3934959
:104F2000214408437FF4EFAC9DED0C0B53EC102BA8
:104F30009DED020B51EC100BFBF789FA53EC1A2B89
:104F4000FBF70EFD7FF6DFAC24F000408849894A6C
:104F5000002601EB205182422BDA481C4FF48011CD
:104F600021FA00F02044844AC0F30A517A44A1F2A5
:104F7000FF3192ED000B814A8DED080BCA4020EA0B
:104F80000202C0F3130040F48010C1F1140120FAB2
:104F900001F60992002CB8BF76429DED080B53EC48
:104FA000102B9DED0C0B51EC100BFBF750FACDE9DB
:104FB0000C019DED0C0B51EC1A0B53EC102BFBF775
:104FC000A5F99FED6F0B0890CDE9085153EC102B1C
:104FD0009DED080B51EC100BFBF73FFA41EC1B0B5E
:104FE0009FED690B53EC102B9DED080B51EC100B52
:104FF000FBF733FA9DED0C0B41EC1C0B53EC102B23
:105000009DED080B51EC100BFBF721FA53EC1A2B1A
:10501000FBF720FA9FED5E1B53EC112BFBF71DFAFB
:1050200053EC1C2BFBF772F941EC1A0B51EC1B0BE8
:1050300053EC1A2BFBF76AF9CDE902019DED020B47
:1050400053EC1B2B51EC100BFBF701FA53EC1A2B12
:10505000FBF700FA9DED020B41EC1A0B53EC102B01
:1050600051EC100BFBF7F9F9CDE908014A489DED29
:10507000080B0521784400F00FFC9DED081B51EC56
:10508000100B53EC112BFBF7E8F99DED021B53ECD1
:10509000112BFBF7DFF9CDE906019DED020B53EC77
:1050A0001A2B51EC100BFBF7D8F953EC1A2BFBF72A
:1050B0002DF99FED3B0B41EC1A0B53EC102B9DEDA2
:1050C000060B51EC100BFBF7C2F99DED060B41EC02
:1050D0001B0B53EC102B9DED020B51EC100BFBF74F
:1050E000BCF953EC1B2BFBF764FB53EC1A2BFBF7BF
:1050F000AEF99DED021B53EC112BFBF7A8F953EC15
:10510000192BFBF7A7F9CDE9020101EB06500115B8
:105110000029C8BF039015DC9DED020B324651EC0F
:10512000100BFBF7B5FBFFF79BF9042808BF00F055
:1051300013FD32469DED020B51EC100BFBF7A8FB63
:10514000CDE902019DED020B51EC180B53EC102B35
:10515000FBF783F9FFF73ABB000090400000000026
:10516000FE822B654715973C00CC904000346F3F82
:1051700001FCFFFF0000E03FB8310000FFFF0F001F
:1051800000000000432EE63F396CA80C615C20BE95
:10519000EF39FAFE422EE63F5830000000000000D2
:1051A000000000000000004010B52F499FED2C1BAF
:1051B0002DED020B84B0059820F000408842DCBF42
:1051C00000209DED040B32DD2849884209D1049866
:1051D00040B94FF0010000F0DFFC00F09DFC06B08C
:1051E00010BD05DB9DED040B00F082FC06B010BD88
:1051F00068469DED040B00F07BF810F0030011D021
:10520000012818D09DED021B9DED000B02281AD03D
:1052100000F08AFA51EC100B81F0004106B041EC2D
:10522000100B10BD9DED021B9DED000B012000F049
:10523000AFFB06B010BD9DED021B9DED000B00F015
:1052400073FA06B010BD012000F0A2FB51EC100B68
:1052500081F0004106B041EC100B10BD00000000D1
:105260000000000000000000FB21E93F0000F07F8B
:1052700000B52DED048BB0EE409AF0EE609A83B04D
:1052800051EC190BFBF71BFB41EC180B18EE100A45
:1052900018EE901A8DED008B002818BF01200843EE
:1052A00020F00040C0F17F6000F1E040C00F14D05A
:1052B00019EE101A19EE900A8DED009B002918BF07
:1052C0000121084320F00040C0F17F6000F1E04080
:1052D000C00F04BF012000F05FFCB0EE480A03B02D
:1052E000F0EE680ABDEC048B00BD00000000000079
:1052F0002DE9F14F04462DED020B2DED088B8AB000
:105300009FEDE70B80ED020B139EE74826F000456A
:1053100085420ADC9DED120B002084ED000B0AB0E3
:10532000BDEC088B03B0BDE8F08FE0489FEDE0AB2B
:105330009FEDE1BBA84247DDE14F9FEDE39B9FED71
:10534000E48B9DED120B53EC1A2B51EC100B002E3D
:105350001CDDFBF77CF841EC100BBD4208D053EC90
:105360001B2B51EC100BFBF772F8C4E900010BE0AA
:1053700053EC192B51EC100BFBF769F853EC182B7D
:10538000FBF765F8C4E900010120C8E7FAF7BEFFA2
:1053900041EC100BBD4208D053EC1B2B51EC100B11
:1053A000FAF7B4FFC4E900010BE053EC192B51EC00
:1053B000100BFAF7ABFF53EC182BFAF7A7FFC4E971
:1053C00000014FF0FF30AAE7C348A84279DB9DED0A
:1053D000120B51EC100B00F033FD41EC180B9FED5C
:1053E000C00B53EC102BFBF738F89FEDBF1B53ECB1
:1053F000112BFAF78BFFFBF7B3F80746FBF79FF883
:1054000041EC190B53EC1A2BFBF727F853EC182B34
:10541000FBF720F841EC180B53EC1B2B51EC190B4C
:10542000FBF71BF8DFF8C8A241EC100B4FEA155848
:105430000125FA4453EC102B51EC180BFBF707F83D
:10544000032DC4E900013DD0C1F30A5005EB45111D
:10545000A8EB00001139814234DA0AEB051BB0EEEB
:1054600048AA9BED000BF0EE68AA53EC102B51EC10
:10547000190BFAF7F2FF41EC1B0B51EC1A0B53EC32
:105480001B2BFAF7E4FF41EC180B51EC1A0B53EC11
:10549000182BFAF7DCFF53EC1B2BFAF7D8FF9BED28
:1054A000020B41EC1A0B53EC102B51EC190BFAF7D1
:1054B000D4FF53EC1A2BFAF7CAFF41EC100B6D1C0A
:1054C000B8E70EE0002EA8BF3846BFF628AF94ED2F
:1054D000000B51EC100B81F00041C4E9000178424F
:1054E0001DE7C6F3130040F4801EC6F30A50A0F275
:1054F000F530471100F01F05C5F12000DDF848B078
:1055000008900020069007900520EC467949002D70
:1055100007EB0002794408BF51F8221009D051F876
:10552000223001EB8201AB404A68089922FA01F16E
:105530001943A1FB0E26A1FB0B131A449A4234BF58
:105540000123002303EB06080CEB8003D3E901A63B
:105550000E448E4234BF0121002192448A4411B18D
:10556000924502D903E0924501D2012100E00021D9
:10557000C3E901A641444CF82010011EA0F101002E
:10558000C4DC029800F10050850F0298DDE9036742
:105590008000DDF81480FAF7D2FF41EC1A0B304698
:1055A000FBF708FA9FED541B53EC112BFAF755FF4C
:1055B00041EC1B0B3846FBF7FDF99FED511B53ECFB
:1055C000112BFAF74AFF41EC180B4046FBF7F2F9B2
:1055D0009FED4D1B53EC112BFAF73FFF41EC190BDC
:1055E00051EC180B53EC192BFAF790FE53EC1B2BD4
:1055F000FAF78CFE53EC1A2BFAF788FECDE9080176
:10560000002008909DED080B53EC1A2B51EC100B69
:10561000FAF71DFF53EC1B2BFAF719FF53EC182B6D
:10562000FAF715FF53EC192BFAF714FF9FED381B0F
:1056300053EC112BFAF711FF9FED370B41EC180BD0
:1056400053EC102B9DED080B51EC100BFAF705FFF6
:1056500053EC182BFAF75AFE9FED310B41EC180B67
:1056600053EC102B9DED080B51EC100BFAF7F5FEE7
:1056700053EC182BFAF74AFE41EC100B139810F07C
:10568000004F06D06D4251EC100B81F0004141EC0F
:10569000100B284684ED000B41E6000000000000DE
:1056A0000000000000000000FB21E93F7CD902401F
:1056B00000004054FB21F93F3163621A61B4D03DD0
:1056C000FB21F93F000000000000601A61B4D03DEA
:1056D0007370032E8A19A33BFB213941000000009F
:1056E00083C8C96D305FE43F000000000000E03F68
:1056F000FA2C0000482C0000000000000000103EC2
:10570000000000000000103C000000000000103A03
:10571000182D4454FB21F93D3326A611460B113CAC
:1057200000000054FB21F93D10B52DED040B2DEDCB
:10573000088B82B0B0EE419AF0EE619A0B9820F09F
:1057400000449FED4BABB4F1795F11DA9DED0A0B8C
:1057500051EC100BFAF704FF002801BFB0EE4A0A23
:10576000F0EE6A0A02B0BDEC088B04BF04B010BDB5
:105770009DED0A0B53EC102B51EC100BFAF76DFE5C
:1057800041EC180B3C480621B0EE480AF0EE680ADE
:10579000784400F081F853EC182B51EC100BFAF719
:1057A0005CFE9DED0A0B41EC1B0B53EC192B51ECED
:1057B000100BFAF752FE41EC190B53EC1B2B51EC7A
:1057C000180BFAF74AFE53EC192BFAF740FE9FED3F
:1057D0002C0B41EC190B53EC102B51EC180BFAF776
:1057E0003CFE41EC100B2848844210DA53EC192B94
:1057F00051EC100BFAF72BFE53EC1A2BFAF72AFE9A
:1058000041EC100B02B0BDEC088B04B010BD1F487A
:10581000A042BCBF9FED1E1B8DED001B06DBA4F557
:1058200000100190002000909DED001B51EC100B2A
:1058300053EC112BFAF70BFE9DED000B41EC180B0E
:1058400053EC102B51EC1A0BFAF701FE41EC1A0B3A
:1058500053EC192B51EC180BFAF7F9FD53EC1A2BFA
:10586000FAF7F8FD41EC100BCCE700000000000057
:10587000000000000000F03F64290000000000006C
:10588000000000000000E03F3333D33F0000E93F59
:10589000000000000000D23F70B504462DED028BE1
:1058A0004D1E00EBC500B0EE408AF0EE608A90ED30
:1058B000000B35F0060017D053EC182B51EC100BF1
:1058C000FAF7CBFD41EC100B6D1E04EBC50090ED1B
:1058D000001B51EC100B53EC112BFAF717FD41ECA8
:1058E000100B35F00600E7D1022D36D0042D1CD068
:1058F000062D1CBFBDEC028B70BD53EC182B51EC78
:10590000100BFAF7AAFD94ED0A1B53EC112BFAF7D2
:10591000FDFC53EC182BFAF7A0FD94ED081B53EC9B
:10592000112BFAF7F3FC41EC100B53EC182B51EC54
:10593000100BFAF792FD94ED061B53EC112BFAF7BE
:10594000E5FC53EC182BFAF788FD94ED040B53ECAF
:10595000102BFAF7DBFC41EC100B53EC182B51EC3D
:10596000100BFAF77AFD94ED021B53EC112BFAF7AA
:10597000CDFC53EC182BFAF770FD94ED001B53ECA3
:10598000112BFAF7C3FCBDEC028B41EC100B70BD80
:1059900031B504462DED040B2DED0A8BB0EE41BA66
:1059A000F0EE61BA0B989DED0A0B20F00040B0F1CB
:1059B000795F0DDA51EC100BFEF752FD042808BF99
:1059C00000F0CAF89DED0A0BBDEC0A8B05B030BDA6
:1059D00053EC102B51EC100BFAF73FFD41EC180B78
:1059E0009DED0A0B53EC182B51EC100BFAF735FD1B
:1059F00041EC190B2C48B0EE480AF0EE680A05217C
:105A00007844FFF749FF9FED2ACBB0EE40AAF0EEB5
:105A100060AA9CB353EC1C2B51EC190BFAF71DFD3B
:105A200041EC1C0B53EC1A2B51EC190BFAF715FD3A
:105A30009FED210B41EC190B53EC102B51EC1B0B80
:105A4000FAF70BFD53EC192BFAF701FD53EC182B69
:105A5000FAF703FD53EC1B2BFAF7F9FC53EC1C2B64
:105A6000FAF7F5FC9DED0A1B53EC112BFAF7F2FC4B
:105A7000BDEC0A8B05B041EC100B30BDFFE753ECD9
:105A80001A2B51EC180BFAF7E8FC53EC1C2BFAF725
:105A90003DFC53EC192BFAF7E0FC9DED0A1B53EC8F
:105AA000112BFAF733FCE3E7F427000000000000B5
:105AB000495555555555C5BF000000000000E03F51
:105AC0009FED070B10B553EC102B9FED070B51EC1E
:105AD000100BFAF76EFE41EC100B10BD0000000039
